:020000041000EA
:10000000002008205D0100101B0100101D010010E0
:100010001101001011010010110100101101001058
:100020001901001019010010190100101F01001022
:10003000110100101901001021010010230100100E
:100040001101001011010010110100101101001028
:100050001101001011010010110100101101001018
:100060001101001011010010110100101101001008
:1000700011010010110100101101001011010010F8
:1000800011010010110100101101001011010010E8
:1000900011010010110100101101001011010010D8
:1000A00011010010110100101101001011010010C8
:1000B00011010010110100101101001011010010B8
:1000C00011010010110100101101001011010010A8
:1000D0001101001011010010110100101101001098
:1000E0001101001011010010110100101101001088
:1000F0001101001011010010110100101101001078
:100100001101001011010010110100101101001067
:10011000EFF30580103800BE00BE00BE00BE00BE7A
:1001200000BE00BEF2EB887148B2041070B2041039
:10013000A001001090A31AE7D3DEFFFF42012110B7
:10014000FF010000A0B80400793512AB4FF00000A9
:100150001E49086006C881F3088810474FF05040D8
:10016000006810B14FF00000F2E70DA40ECC00299A
:1001700002D000F012F8F9E71549164A002000E015
:1001800001C19142FCD11449884714498847144958
:10019000884700BEFDE701C901C29A42FBD3704700
:1001A00070B204102001002088080020D8B9041083
:1001B0000000082000000820D8B904100010082012
:1001C00000100820000000007047000008ED00E06B
:1001D0008808002094C40020251401109103001009
:1001E0001D140110F8B500BF064B0749C91A891044
:1001F00048BF0131491003D0044B0BB101481847E7
:10020000704700BF88080020880800200000000018
:1002100008B5054B1BB105490548AFF30080BDE8A3
:100220000840FFF7E1BF00BF00000000FCB3002062
:10023000501E011038B515480C4611F063FA144BE6
:100240001A6852B15A68EAB1124811F05BFA2046B6
:1002500004F052FA6FF00C0038BD01251946204613
:1002600043F8224003F056FE20460B4903F056FEA9
:100270002046002103F060FE2946084811F0C2FA2A
:10028000002038BD02250122191DE8E7501E01108B
:10029000AC0B0020641E0110A1020010901E011082
:1002A00070B50D4684B0D2B114464B6803A8568988
:1002B00003930AF0EFFF63680246009331466389B7
:1002C0000B4811F09FFA012362896168284606F005
:1002D00053F8204602F0CAFE002004B070BD054865
:1002E00011F010FA284604F007FA002004B070BD9F
:1002F000C81E0110B41E011010B504F04BF8D0B1A7
:1003000041F2F1220E49044603F01EFA68B9FF21BA
:10031000204603F081FA0B4903F01CFEBDE81040B3
:1003200041F2F121084811F06DBA0146BDE81040D4
:10033000064811F067BA0648BDE8104011F0E2B96E
:10034000843C0110350200101C1F0110041F011015
:10035000EC1E011010B56FF07F440A4984B003AB66
:1003600002AA01910391084801A9029402F0D6FB68
:1003700001A80AF08FFF0146044811F043FA04B0C7
:1003800010BD00BFC0A8040100150020401F0110CF
:1003900008B511F06FF90BF0BFF8B0B90E490F486E
:1003A00011F030FA0E4A0F490B480BF071F8FFF7C5
:1003B000D1FF4FF4FA6001F0A3FBFFF79DFF0BF0B4
:1003C000A1F8642001F09CFBF9E7074811F09AF9C5
:1003D0004FF0FF3008BD00BF681F0110781F0110EB
:1003E00004004000901F0110541F011007F09AB93B
:1003F000012370B50B72044607F0C2F9431C0CD1FF
:10040000104AD2E90032256820460F496C69C1E9DB
:1004100002322346BDE870401847054601F062FCF1
:1004200003460A464FF47A704FF0FF3E6FF0004CDF
:10043000E5FB00329E457CEB02013CBF7346624601
:10044000E1E700BF903B0110A807002038B5094D37
:1004500004462B7843B10125236807492046DB6910
:100460000D729847284638BD01F058FD01232B70C6
:10047000F1E700BF84C40020C007002010B5044687
:10048000036805499B69984723682046BDE81040EA
:1004900002491B6A184700BFA8070020C0070020B8
:1004A00000207047704700BF08B501F01BFC29B160
:1004B0004FF47A72002311F087FC08BD024AA2FBB8
:1004C0000020800908BD00BFD34D621083681BB9AE
:1004D00006E01A6832B113468B42FAD10020704709
:1004E00000F108030022196001200A60704700BF74
:1004F000836800F108021BB908E01A461B682BB19B
:100500008B42FAD11B680120136070471846704770
:1005100043681BB906E01A682AB113468B42FAD128
:1005200000207047031D0022196001200A607047F7
:100530004368021D1BB908E01A461B682BB18B42A9
:10054000FAD11B680120136070471846704700BF3E
:10055000344B2DE9F047D3E900458368804663B307
:1005600000F1080601F0BEFBD8F808A0B646BAF1C3
:10057000000F22D053464FF0000CD3E90227B0EB16
:10058000020961EB0709B9F1000FA8BFF4469E46C6
:100590001B68A4BF10463946002BEED1BCF1000FFA
:1005A0003BD0DCF800104046D1E90023CCF8002015
:1005B0009847D8F80830002BD4D1D8F8046006B397
:1005C0000027337A1BB33146736837724046984729
:1005D0003668002EF5D1D8F808A0BAF1000F10D077
:1005E0005246D2E90231E01A65EB0102012872F1AC
:1005F0000002DAF800A0F0DB1C460D46BAF1000F4D
:10060000EED120462946C8E90445BDE8F0873668A2
:10061000002ED6D1D8F808A0DFE7D8F80460002E65
:10062000CED1DDE7903B01100FB400B583B0049C40
:10063000074811F067F83CB105A92046019110F078
:10064000D3FE044811F05EF8012010F0E5FE00BF73
:100650009C1F0110AC1F0110F0B4154F154AC019B2
:1006600042EB0101820F42EA8102134B424002FB3E
:1006700003F3124E81EA917106FB0133A2FB0626B9
:100680003344D00E0E4C40EA4310504004FB00F1BE
:100690000C4D83EAD363A0FB050205FB0311F0BCFC
:1006A000C30F114443EA4103584081EAD1717047B6
:1006B000157C4A7FB979379E6D4758BFB9E5E41C70
:1006C000BB49D094EB11311370B5EFF3108C72B6B7
:1006D000204CD4E8CF2F0123002AFAD1C4E8423FAE
:1006E000002AF6D1BFF35F8F1B490B78012B10D97D
:1006F000023BDBB21846194A03F1010E0B7052F8A7
:10070000200052F82E100023C4E88F3F8CF310888D
:1007100070BD4FF0FF320020114B18639A63DA620C
:100720009A60D3F8B820002AFBD104205D690B4AF7
:100730004FF0050E15609D695560DD6995601D6A75
:10074000D5605D6A1561074D9E6A2D685661DD6052
:100750000346D3E75C0A00208FC4002048C4002071
:1007600000010F4010010020F8B5D0E900640546F3
:100770008068E96846EA000344EA0102134304D1B1
:1007800001F0B0FA50EA0103FAD086EA00036140B2
:10079000A000B7002206BF1940EA96704FEA066E25
:1007A00042EA16224FEA014646EA13464EEA142E62
:1007B00082EA010244EB000072408EEA030484EAFC
:1007C00003446A60DA0E4FEAC71C42EA41122C6009
:1007D000C90EC40144EA57644CEA506041EA43132D
:1007E000EB60E100C300181841EA5C71AA6044EBB9
:1007F0000101F8BD2DE9F04F5C4D8DB02B78002B39
:1008000055D05B4C5B4F08AEBB68DFF86C81009342
:10081000D7E900A598F800B0D7F80C9001F062FA7B
:10082000FFF71AFF80EA0A0A4D40FFF74DFFFFF776
:1008300013FF009B5FFA8BFB584081EA0903EFF33B
:10084000108972B6D4E8CF1F01220029FAD1C4E87A
:10085000412F0029F6D1BFF35F8F98F800205A4549
:1008600008D03A688AEA020A7A685540BA68504065
:10087000FA685340CDE90A033046CDE908A5FFF7F1
:1008800073FFDDE90AAB98F80030C7E902ABDDE998
:1008900008AB0133DBB20022C7E900AB88F80030B7
:1008A000C4E88F2F89F310880DB0BDE8F08F08AE33
:1008B000304601F0BFFADDE90A34DDE90889CDE907
:1008C000003401F00FFA83468A46FFF7FDFE034627
:1008D0000F46EFF3108272B6254CD4E8CF0F0121FA
:1008E0000028FAD1C4E8401F0028F6D1BFF35F8F7B
:1008F000297831B11F4F0023C4E88F3F82F310885D
:1009000082E758465146CDE90223FFF7A5FE864609
:100910008C4640464946E046F146FFF79DFE039B64
:1009200081EA080180EA0900CDE904011846394648
:10093000FFF792FE0F468046DDE90001FFF78CFECF
:10094000794080EA0800CDE9060104A8FFF70CFF12
:10095000DDE906010123074F029AC7E90201DDE93B
:1009600004012B70C7E90001C5E700BF8BC400205C
:100970005C0A00201001002082C4002008B5FFF7A7
:1009800039FF08BD00EB400C4FEA8C0C0CF1804C99
:100990000CF5803CF0B51646DCF80420051FB2F5D6
:1009A000803F38BF4FF48032EDB238BFCCF804201E
:1009B000012D2AD94FF40067254C0CF540521760E1
:1009C00054F82020B2B9DCF80020012D82EA46124A
:1009D00002F0E0020CF5805632602AD94FF4006133
:1009E00044F820304FF480330CF500521160CCF8FD
:1009F0000430F0BD6769B7FBF2FE0EF1010E0EEB9D
:100A00004E0EBEF1030EFCD2DDE70129D2D1032444
:100A10000CF540521460DCF80820D207FBD5DCF856
:100A200000200B4C82EA461202F0E0020CF58056E0
:100A300032600122DCF800504D4005F003053560BE
:100A400002FA01F1DCF808200A42FBD0C6E700BF39
:100A5000B40B0020014B53F820007047B40B00206A
:100A6000EFF3108072B6064BD3E8CF1F01220029A6
:100A7000FAD1C3E8412F0029F6D1BFF35F8F704749
:100A80005B0A00200023034AC2E88F3F80F31088EE
:100A9000704700BF5B0A002070B58646EFF31085F3
:100AA00072B6124CD4E8CF6F0120002EFAD1C4E800
:100AB000460F002EF6D1BFF35F8F4FF0010CC80830
:100AC00001F007030CFA03F31EF800C01CEA03064A
:100AD00008D14CEA030C0EF800C0C4E88F6F85F310
:100AE000108870BD1046FFF79FFD00BF5B0A002015
:100AF000F8B5EFF3108772B61C4ED6E8CF5F01242D
:100B0000002DFAD1C6E8454F002DF6D1BFF35F8F17
:100B10009A421BD8012502E00132934222D3D40825
:100B200010F804E002F0070C05FA0CFC1EEA0C0FAA
:100B3000F2D14EEA0C0E00F804E010460023C6E89D
:100B40008F3F87F31088984207DBF8BD0023C6E883
:100B50008F3F87F310884FF0FF300029F5D00698BB
:100B6000FFF762FD4FF0FF30E8E700BF5B0A0020AF
:100B700000B5EFF3108E72B6104BD3E8CFCF012241
:100B8000BCF1000FF9D1C3E84C2FBCF1000FF4D138
:100B9000BFF35F8F01224FEAD10C01F0070102FA87
:100BA00001F110F80C2022EA010200F80C200022CA
:100BB000C3E88F2F8EF310885DF804FB5B0A0020DA
:100BC000044A1078431CDBB2182B28BF1023137083
:100BD000704700BFD00700204FF0E022936843F039
:100BE00000539360704700BF0021044B03F12002C3
:100BF000C3E88F1F01339342FAD17047500A002097
:100C000010B44FF480740C4B53F8202003EB800396
:100C1000C00082F0400200F1804003F5805C02F0E9
:100C2000C00200F5203003F54053CCF800204160AD
:100C30001C605DF8044B70470480034010B4084CFE
:100C4000C90041EA820154F8202004EB800351409E
:100C500003F5805301F00C015DF8044B19607047F7
:100C600004800340064B022203EB800319B103F515
:100C700000531A60704703F540531A60704700BF75
:100C8000048003404FF050431B6893B10C4B4FEA74
:100C9000D00C00F00700800081400A4803EB8C0371
:100CA0000CF18C0C40F82C102AB103F5005319609C
:100CB0007047054BEBE703F540531960704700BFE1
:100CC0009082024000800240488202402DE9F041BB
:100CD0004FF050480D4FD8F80030164657F82320F3
:100CE000044602420D4609D114432946324647F8CC
:100CF00023401520BDE8F04100F0B2B80EF096FD9B
:100D0000D8F8003057F82320EEE700BFF0C30020EA
:100D100010B50446152000F097F94FF05043044AEF
:100D2000196852F8213023EA040342F8213010BD3B
:100D3000F0C3002030B44FF0000343EC440043EC18
:100D4000400005254FF480740B4BC20053F820106F
:100D500003EB800081F0400102F1804303F5203372
:100D600001F0C00200F5805100F540500A605D605E
:100D7000046030BC704700BF048003404FF0E023A4
:100D80004FF08032C3F80024C3F80424C3F80824C9
:100D9000C3F80C24C3F81024C3F81424C3F818248F
:100DA000C3F81C24C3F82024C3F82424C3F828243F
:100DB000C3F82C24C3F8302462B67047012300F036
:100DC0001F029340400941B1800000F1604000F5EE
:100DD0006140C0F8803103607047024A203042F819
:100DE0002030704700E100E001224309034900F090
:100DF0001F008240403341F82320704700E100E0AB
:100E0000F8B50D46EFF3108772B6124ED6E8CF2F25
:100E10000123002AFAD1C6E8423F002AF6D1BFF3E7
:100E20005F8F0D4B00F110049B680C4A53F824307F
:100E3000934203D0994201D00EF0F8FC064B9B6818
:100E400043F82450BFF35F8F0023C6E88F3F87F33A
:100E50001088F8BD590A002000ED00E011010010D3
:100E60002DE9F04F81468B46164683B0EFF3108391
:100E700072B6DFF8D0A10093DAE8CF1F0123002972
:100E8000FAD1CAE8413F0029F6D1BFF35F8F664B24
:100E900093F90040002CC0F2A080644D04EB44079D
:100EA00005EB870898F8061009F110091970604BD6
:100EB000BF009B6853F829006300411B2F292FD9DD
:100EC0005C49884240F0A4801C445B4B02372F44AD
:100ED000043BDB1BC3F34A036FEAC3434FF42141D6
:100EE0006FEAD34325F8241005EB840463804BF6A6
:100EF0000153A380FF2348F00100E671C4F808B055
:100F0000A3714B4B9B6843F82900BFF35F8F00230D
:100F1000CAE88F3F009B83F3108803B0BDE8F08FD1
:100F200020F0010E9EF80710B1422ED84FF4214355
:100F3000EB53414BB91C2944043B04375B1A2F4443
:100F4000AEF10401C91BC1F34A043C49C3F34A038F
:100F50000B432143A8F804103949A8F802304AF697
:100F6000AA2073465B1B5B415843000D88F807605D
:100F700088F80600C8F808B048F00100CEF8001064
:100F8000BFE7D179B1422ED996469EF906C00CEB47
:100F90004C02BCF1000F05EB8202F2DA4BF6015174
:100FA0000EF10402A8F10407BF1AC7F34A076FEA5B
:100FB000C7476FEAD7478EF8064003EB0408204C7A
:100FC00005EB8803AEF8047045F82840998083F853
:100FD00006C0DE71C3F808B093E70EF027FC124B91
:100FE00093F9004059E7724632F8041F490514D4BA
:100FF0004915023102EB410101916FF00701C91B54
:10100000019F491B3944C1F34A0141F46041C9E7DA
:1010100001930EF00BFC019B56E701F5FF1101F562
:10102000FF511F31E4E700BF87C40020D407002030
:1010300000ED00E0110100100408002000E0FFFFB7
:1010400001488047590A00202DE9F04F83B0EFF3A3
:10105000108A72B6714ED6E8CF2F0123002AFAD13A
:10106000C6E8423F002AF6D1BFF35F8F6C4B00F118
:1010700010089B686B4A53F82850954245D08D4222
:101080000C4650D0684FEB1B2F2B3ED801214FEA66
:1010900050194FEA890909F1604909F5614900F0E1
:1010A0001F0301FA03F0D9F80030C9F8800000EA04
:1010B000030BBFF35F8FEFF30581C9B2002934D072
:1010C000884505D0CDE900100EF0B0FBDDE9001039
:1010D00025F0010EDEF808C0644505D189E0D3F89B
:1010E00008C0644531D09E469EF9062002EB4203BB
:1010F000002A07EB8303F2DA644561D0BBF1000FED
:1011000020D0C9F88001C9F80000454B9B6843F81E
:101110002850BFF35F8F0023C6E88F3F8AF3108803
:1011200003B0BDE8F08F1546EFE725F0010EDEF8BD
:1011300008C06445D8D19EF906407346002C08DAF1
:10114000154646E0C9F88000DFE793F90640002C19
:1011500037DB04EB440C07EB8C0C9CF80710DCF835
:101160000820D9719A609CF906206100002A9A71C2
:101170003DDBBCF804E05FEA4E5E05D50EF5FF1ED0
:101180000EF5FF5E0EF11F0E6FF0070C0A194FEA05
:101190006E5E920002EB4E0208323A44ACEB030C56
:1011A0006244C2F34A026FEAC2426FEAD2429A80B4
:1011B0001E4B21441A7807EB81011C708A719DE750
:1011C0007346D9B9FF228EF806204BF60152AEF8CD
:1011D0000420164C4AF6AA2294F800C01946C91BEE
:1011E00049414A43120D83F806C0227086E7104A2F
:1011F000DDE79EF906407346002CAADA0D4A0E4C34
:10120000D21A083AC2F30A316FEA01516FEA11515A
:1012100044EA5202DA80998070E700BF590A002040
:1012200000ED00E011010010D407002087C4002069
:1012300001BDFFFF0E08002000F8FFFF4FF0FF0C7C
:1012400020F0030303F1604303F5644300F003005F
:101250001A68C0000CFA00FC22EA0C0281400A4322
:101260001A607047F0B5EFF30585EDB2EFF3108C1F
:1012700072B62649D1E8CF2F0123002AFAD1C1E85E
:10128000423F002AF6D1BFF35F8F214E40F0010E9E
:10129000B4684AF6AA2354F825701E4A0446A41AD4
:1012A000644163431B0D77455BB21BD092F9064046
:1012B0009C421CD092F912409C4223D092F91E40CD
:1012C0009C4221D092F92A409C4208BF03240FD0AF
:1012D000114A0024157813708571C1E88F4F8CF383
:1012E0001088F0BDB2680D4C42F82540F0E70024AC
:1012F00004EB440402EB8402FF2494714BF6015486
:101300009480E5E70124F3E70224F1E7590A00207D
:1013100000ED00E0D407002087C400201101001078
:1013200001460248C1F13301FFF722BC90C40020FE
:1013300010B5074C82B001460523002200940548F1
:10134000FFF7D6FB0028A8BFC0F1330002B010BDE4
:10135000B01F011090C4002070B504460E4615461B
:10136000FFF72EFC0146204600F006F8A680E58037
:10137000BFF35F8F70BD00BF014B0B44036070472C
:10138000500A002070B5104C104DAC420ED2FF2612
:10139000236863B1FFF714FC01462046FFF7ECFF1A
:1013A000A680BFF35F8F0834AC42F1D370BDFFF766
:1013B00007FC01462046FFF7DFFF2671BFF35F8F72
:1013C0000834AC42E4D370BD8008002088080020B7
:1013D00010B50446FFF7F4FB01462046FFF7CCFFAB
:1013E000FF23A380BFF35F8F10BD00BF0D4B1A68B2
:1013F000EFF3108172B6D2E8CFCF0120BCF1000F1D
:10140000F9D1C2E84C0FBCF1000FF4D1BFF35F8FEC
:1014100000221B68C3E88F2F81F3108840BF002093
:101420000021704710C400202DE9F04F2DED028BF4
:1014300085B0EFF30583DBB2103B9A0818BF012299
:101440004FF0010103F0030B18BFAF4DAF4B08BFC6
:10145000AF4D0BEB820253F8226001FA0BF205F557
:1014600041539FEDA78B01925A602FE0B3881C0473
:1014700040F19380B379002B40F0DD80B6F908206D
:10148000002AC0F21E81736902EB420203EBC20321
:10149000D3E90247B7F1FF3F08BFB4F1FF3F0ED0D9
:1014A00005EB8B01AB6A0A69D21AE31A934205D3A2
:1014B00001232A6A03FA0BF3134200D10C61284678
:1014C00000F008FCA042B941C0F2FB80B6F9083038
:1014D000019A002B0093EA63C8DBD6F8148003EB73
:1014E0004309284608EBC907D7E9024A00F0F2FB96
:1014F000A04271EB0A01B9DBBAF1000FC0F2C38060
:10150000D7E90431834A934200F0ED807A88B6F936
:10151000080092B242EA0040984702460B4652EA5F
:10152000030100F0B080002B80F2D180B4EB020EFA
:101530006AEB030A38F93930C7E902EA002B95DB78
:10154000716903EB430201EBC202D2E90270BE45AE
:101550007AEB000C4FEA430288DBB4462CF8083FD4
:1015600006E003EB430001EBC0005A00D0E9027033
:10157000BE451A447AEB000001EBC20404DB31F9EA
:101580003230A446002BECDA28F83930009BACF856
:101590000030B3881C043FF56DAF3369EFF3108260
:1015A00072B6D3E8CF0F01210028FAD1C3E8401F5B
:1015B0000028F6D1BFF35F8F4FF6FF74B088002389
:1015C000316900B2B480C1E88F3F82F3108898423D
:1015D000FFF650AF0746A946746906F1080807EB05
:1015E000470E04EBCE03D3E90250B6F90830C446E7
:1015F000002B13DBB246009704E034F936309446F2
:10160000002B09DB03EB430604EBC602D2E90271AF
:10161000BD4270EB0101F0DA5646009FACF8007055
:1016200034F93E7024F83E30002FD8DAB3794D46B5
:10163000002B3FF423AF0023B371B6F9083006F155
:101640000808581C3DD01A46776903E08046591CAB
:101650003FF416AF03EB430107EBC100B0F802C043
:101660001C461CF4004F9E4637F93130EED09442B0
:1016700080ED028B05D0A8F80030328927F83120A0
:1016800034817246E3E738F8393033813369EFF358
:10169000108272B6D3E8CF0F01210028FAD1C3E837
:1016A000401F0028F6D1BFF35F8F7388316928F897
:1016B0003930009B73800023C1E88F3F82F310888C
:1016C000D4E640BF05B0BDEC028BBDE8F08F2846E4
:1016D000CDE9022300F0FEFA029A039B10EB020E02
:1016E00043EB010A26E708460B6902919847002858
:1016F000C9D00299D1E9002311E700BFAFF3008000
:10170000FFFFFFFFFFFFFFFF00800B4014B400202E
:1017100000000B40291400102DE9F84F364C2569C4
:101720002DB1BDE8F84F0A213448FFF725BEDFF898
:10173000E4800321404600F0BBFA0326C4F80C8085
:10174000FFF73EFA4FF0504C2D4B267003442361B7
:10175000DCF800300F216370636961801D834FF0F6
:101760000405A3F878504FF00505A3F890504FF00A
:101770000605A3F8A8504FF007050E214FF6FF729B
:1017800008274FF00A0EA3F8C0504FF001094FF0A0
:101790000C0C4FF0020B4FF0090A0D204FF00B0517
:1017A000A3F868111749A280A3F808E1A160A3F883
:1017B00048B0A3F8F0A0A3F82051A3F838C1A3F8CB
:1017C0005001A3F83090A3F86060A3F8D8701A8095
:1017D0000D4B3046C8F820700C49DC60FFF710FB59
:1017E00049463046FFF7EAFA094B0A211F640348CD
:1017F000BDE8F84FFFF7C0BD1C08002010C4002052
:10180000500A0020FFFF100014B40020291400101B
:1018100000200B4000000B40004870471C080020CF
:10182000F8B59DF82050044617461E4635B900F01D
:1018300059FA874266EB010100295CDB2169EFF36D
:10184000108372B6D1E8CF0F01220028FAD1C1E887
:10185000402F0028F6D1BFF35F8FB4F902206569ED
:1018600002EB4201002A4FEAC10C206905EBC101DD
:1018700039DB35F80CE0A4F802E04FF0000EC0E8C8
:101880008FEF83F310884888069B0130C0F30E0069
:10189000012838BF01200B61079B48804B61C1E9DB
:1018A000027640EA02402369EFF3108172B6D3E872
:1018B000CF7F0126002FFAD1C3E8476F002FF6D162
:1018C000BFF35F8FA38825F80C30A2802369C3E89B
:1018D0008FEF81F310880122E368217803F501532B
:1018E0008A405A60F8BD0022C0E88F2F83F3108829
:1018F0004FF0FF30F8BD2846F8BD00BF0146F0B5F7
:101900000069EFF3108772B6D0E8CF5F0124002D95
:10191000FAD1C0E8454F002DF6D1BFF35F8FB1F982
:1019200002E04C690EEB4E0CBEF1000F4FEACC0505
:10193000086904EBCC0C3CDB665B4E800026C0E8FB
:101940008F6F87F31088BCF80200CCE902230130C6
:10195000C0F30E00012838BF0120059BACF802003F
:10196000CCF81030069B40EA0E40CCF814300B69DE
:10197000EFF3108272B6D3E8CFCF0127BCF1000F8E
:10198000F9D1C3E84C7FBCF1000FF4D1BFF35F8FF6
:101990008B886353A1F804E00B69C3E88F6F82F36F
:1019A00010880122CB68097803F501538A405A60F8
:1019B000F0BD0023C0E88F3F87F310884FF0FF3061
:1019C000F0BD00BF03464089B0EB214F37DD5869B9
:1019D0000A1402EB420210B500EBC2001C69EFF3DF
:1019E000108C72B6D4E8CFEF0122BEF1000FF9D10E
:1019F000C4E84E2FBEF1000FF4D1BFF35F8F4288D1
:101A000089B292B28A4207D000221B69C3E88F2FA5
:101A10008CF31088002010BD42F400424280012166
:101A2000002218699971C0E88F2F8CF310881C78F8
:101A3000DA68084602F50153A140596010BD002044
:101A4000704700BF2DE9F041851F41F1FF37A842E3
:101A500071EB070338BF002582B038BF2F4604461C
:101A60000E4600F03FF9281A67EB010C01287CF1C3
:101A7000000C06DA2046314602B0BDE8F04100F025
:101A800069B900F02FF9854267EB010100290ADBF3
:101A90000021174B2A46009316483B460191FFF759
:101AA0002DFF0130E6D04FF0000C134A1349536A62
:101AB0009F4204D8906AA842DCD29F42DAD10B68D8
:101AC000EFF3108072B6D3E8CF8F5FF0010EB8F15C
:101AD000000FF8D1C3E848EFB8F1000FF3D1BFF31E
:101AE0005F8F0B68C3E88FCF80F3108820BFDEE7DD
:101AF000ED1300101C08002000000B4010C4002053
:101B00002DE9F04182B0064600F0ECF84FF47A730C
:101B100004464FF0FF306FF00042E6FB0341A04265
:101B200072EB01033ABF044615460D46A61F45F168
:101B3000FF37B44275EB07033CBF0026374600F081
:101B4000D1F8301A67EB0101012871F1000106DAC2
:101B50002046294602B0BDE8F04100F0FBB800F095
:101B6000C1F8864267EB010100290ADB0021174B0F
:101B70003246009316483B460191FFF7BFFE013005
:101B8000E6D04FF0000C134A1349536A9F4204D821
:101B9000906AB042DCD29F42DAD10B68EFF310803A
:101BA00072B6D3E8CF8F5FF0010EB8F1000FF8D115
:101BB000C3E848EFB8F1000FF3D1BFF35F8F0B68B4
:101BC000C3E88FCF80F3108820BFDEE7ED1300104D
:101BD0001C08002000000B4010C400202DE9F04339
:101BE00006460D4683B0EFF30584E4B23CB12D4BBD
:101BF0005A6AAA421CD2002003B0BDE8F0832A4FE3
:101C0000D7F80C9097F80080484600F063F808F188
:101C1000040859F828301B1A301A65EB0101984264
:101C200071F1000110DB20BF1E4B5A6AAA42E2D3B9
:101C300014BF012400249B6AB34234BF204644F001
:101C4000010003B0BDE8F08300F04CF8864265EB7C
:101C50000101002914DB154B3846CDE9003432462A
:101C60002B46FFF74BFE011E0ADD0E4B5A6AAA42B5
:101C700016D39B6AB34211D30B48FFF7A3FEB6E716
:101C8000084B5C6AAC42B6D3641B18BF01249B6A44
:101C9000B34234BF204644F00100ADE7AA42EBD185
:101CA00020BFE9E700000B401C080020ED130010E6
:101CB00010B4054B054C064AA04214BF1846581CE8
:101CC0005DF8044BFEF7E8BEA40B002000800B403B
:101CD000CC1F01100346416A0A46986A596A8A4233
:101CE000FAD17047034B596A0A46986A596A914279
:101CF000FAD1704700000B4030B4154A536A9C4635
:101D0000946A536A6345FAD1021959414FF00005AC
:101D100028BF01250E4B5B6AB5B15A1C08BF1A4695
:101D200008D04FF0FF310A460948436A8B42FCD382
:101D30008B4207D1064902E0486A984202D1886A7C
:101D40009042F9D330BC70479942EDD8F0E700BF1C
:101D500000000B40074A536A9942FCD8994207D1C8
:101D6000044B02E05A6A914202D19A6A9042F9D831
:101D7000704700BF00000B4070B4039D04682D0342
:101D800045EA03451B4B002CB3FBF1F3B2FBF3F622
:101D90001FDB194A194B904214BF4FF480424FF495
:101DA0000042174C1A6003F580531A60A36832EAA8
:101DB0000303FBD1212200F5405304330160866008
:101DC0001A600268002AFCDA0822C5601A6070BC3A
:101DD0007047036803F03F038B42DAD18368C3F393
:101DE0000B03B342D5D1C36803F4EE23AB42D0D189
:101DF000EDE700BF001BB700008005400020024057
:101E000000000240012300EB4000800000F1804010
:101E100000F5841041600360704700BF0023DB8A37
:101E2000002242E800F2520201D410211847042196
:101E3000184700BF002310B5DA8A044686B0002395
:101E400043E800F35B0254BF1021042145F2473000
:101E5000904710220346052101A89847052802D083
:101E6000002006B010BD0DF1080CBCE80F0020608A
:101E700001206160A260E36006B010BD034AD2F8A1
:101E80002838002BFBD0BFF35F8F704700000E4057
:101E90000021044B044ABFF35F8F43F8041B9342B5
:101EA000F9D170470C080E402C080E4010B44FF4C6
:101EB0008D704FF42A64064A064B07491460D060BF
:101EC00019605368002BFCDA5DF8044B704700BFC3
:101ED0000080044000A0044000B0FA0000B545F2C4
:101EE00047308BB0FFF79AFF01220346092101A872
:101EF0009847DDE90332044912BA1BBAC1E900234D
:101F00000BB05DF804FB00BF04C400200346024A86
:101F100003CA18605960704704C4002008B501F076
:101F200077FB00F0FDFA00F0ADFC00F051FD05F08C
:101F300039FC01F0EDFB00F06DF9BDE8084005F05B
:101F4000AFBB00BF40BA80B2704700BF00BA704755
:101F50002DE9F041524D04462B68884613B12A7A88
:101F6000824271D04F4E2701EB6813B12A7DA24205
:101F700060D0AB691BB195F82020A24250D06B6AAB
:101F80001BB195F82C20A24225D03B1906EB031378
:101F9000DB7B7CB3B27A022A62D0012C2ED096F879
:101FA0001A21022A60D0022C2CD096F82A22022A6A
:101FB0006CD0032B0DD83C4D274455F8230005F079
:101FC00007FF0022042106EB0717FB7BF97345F896
:101FD0002320BDE8F081381906EB00104146AA6ABB
:101FE0001030984700236B623B1906EB0313DB7B31
:101FF000002CCFD196F81A21022A4CD096F82A222A
:10200000022A3ED096F83A23022AD2D196F83F23EC
:102010009A42CED104223B1906EB0313DA73D8E7B8
:10202000381906EB00104146EA6910309847002342
:10203000AB61A4E7381906EB001041462A6910305D
:1020400098470023EB6094E700EB0010154E000169
:1020500010306A6830449847002327012B6083E7DB
:10206000F27B9A4299D1D5E796F81F219A42D1D0B6
:10207000022CC7D096F82A22022A07D0032CC1D1FD
:1020800097E796F82F229A42BCD1C3E796F82F2201
:102090009A42F3D1BEE796F81F219A42EAD1B9E7F6
:1020A000C4150020FC150020B41500202DE9F04FC8
:1020B000DFF85CA100EB0013020187B00AEB031408
:1020C0000092E27A012A00F299804E4951F822509A
:1020D000002D00F087801B0110330AEB0305074633
:1020E00028460FF041FE014612314FF4207236208F
:1020F00089B200F06FFE804600286AD00023208954
:10210000CDE903330593FFF71DFF01238DF80E3052
:102110004FF480730C264FF6FE79ADF80C000C22BC
:10212000404603A9ADF81030013D01F00DF90197CB
:1021300069786F1C2E295CD03A46002449B1517849
:1021400001342E29E4B202F1010045D002460029F3
:10215000F5D1A2EB070B154622461FFA8BFB324442
:102160004A4533DC22463146404601F093F9701C63
:102170005A4683B234443946404601F01BF9A4B2B2
:102180002A78661CB6B2002AD2D131464046019F59
:1021900001F080F94FF001230293A31C04229BB2AB
:1021A00002A9404601F006F9009A16483A440AEBA3
:1021B000021A9AF80B20144900EB82029AF80F00D9
:1021C000352351F82000414605F094FD404600F0CB
:1021D0004DFF07B0BDE8F08F521B1FFA82FB05468A
:1021E0002246BCE72946FFF7B3FEA57207B0BDE85B
:1021F000F08F00223D4693461446B0E70348FEF7B1
:1022000013FA00BFF4150020B4150020F01F0110D0
:10221000FC150020704700BF012800D9704721B18C
:10222000054B0A6843F820207047044A024B1268A5
:1022300043F82020704700BFF4150020843C0110B3
:10224000F8B50025464C14F8013CEFB2032B00F220
:102250008480DFE803F01D022F23424EFEF78EFB41
:10226000B27A83B2022A44D096F81A21022A47D0C1
:1022700096F82A22022A4BD096F83A23022A4FD007
:10228000394A384624F8033C44F8012CFFF70EFF86
:102290000135042D04F58874D5D1F8BD54F80B3CF4
:1022A000F3B9002304F8013C0135042D04F58874CA
:1022B000C9D1F2E76378013BDBB26370002BE7D151
:1022C000A3780133DBB2042BA3702ED063703846A1
:1022D0000135FFF7EBFE042D04F58874B3D1DCE77C
:1022E000013B44F80B3C002BD2D1002304F8013C05
:1022F000DAE732899A42B1D096F81A21022AB7D188
:10230000B6F818219A42A9D096F82A22022AB3D107
:10231000B6F828229A42A1D096F83A23022AAFD1E1
:10232000B6F838239A42ABD198E723783BB90F4AE5
:10233000526822B140F20112A3702280C7E7002147
:102340003846FFF705FE00230135042D04F8013C53
:1023500004F588747FF477AF9FE70548FEF764F9CA
:1023600007160020FC15002002000100F4150020D3
:102370000820011070B510F001064FF0000406D0DF
:10238000A1424DDD10F8013B013963F31F2410F029
:1023900003034AD1072950DDA1F1080500F1100E11
:1023A00025F00702964400F1080C5CF8082C0CF1AB
:1023B000080CD2185CF80C3C28BF01329B1828BFCF
:1023C0000133F445F1D1C908C1F10101A0EBC1000D
:1023D000083005EBC1019AB2012902EB134312DD6B
:1023E00002880329134405DD428805291344C4BF2C
:1023F00082889B184A08C2F101020239A0EB420010
:1024000001EB42010230012904BF027862F30704A4
:1024100023449AB202EB13439CB204EB134416B16B
:1024200024BAC4F30F44A0B270BD012903DD30F813
:10243000023B0239AEE70023E5E71A46CCE700BFCE
:102440002DE9F843089C1B6824688846250C15FA7A
:1024500084F414FA83F404EB1344A3B203EB14439F
:102460009CB2174604EB1344D8B105464FF000095F
:102470006E8968683146FFF77DFF204484B2F30718
:1024800004EB104404D524BA89F00109C4F30F44C5
:102490002D68002DECD1B9F1000F02D024BAC4F39D
:1024A0000F444046FFF74EFD05463846FFF74AFD0C
:1024B0002844204483B203EB104398B200EB13404E
:1024C000C04380B2BDE8F883FFF7BABF08B5FFF795
:1024D00051FFC04380B208BDF8B1F8B500270546EA
:1024E0003C466E8968683146FFF744FF0444A3B256
:1024F00003EB1444F30704D524BA87F00107C4F3AF
:102500000F442D68002DECD127B120BA6FEA10409E
:1025100080B2F8BDE04380B2F8BD4FF6FF7070475F
:1025200010B400204FF47A6401210A4B0A4A23F0C8
:1025300003031360094A1871181983F8A41F106067
:102540000749084A1C60C3F8A01F5DF8044B1360DC
:10255000704700BF3FB4002034B4002038B40020DE
:10256000A00FA00F701A0020002877D02DE9F843A3
:1025700083077CD1414AA0F1080312689A4273D8BC
:102580003F4C00F10C0124688C426DD310F8041C00
:1025900000296FD030F8081CB1F57A6F10D830F8E8
:1025A00006ECBEF57A6F0BD8A3EB02081FFA88F889
:1025B000F04502EB0E0606D032F80E50454502D02B
:1025C0003048FEF731F802EB010C64453AD0BCF814
:1025D00002504545F4D100252B4F00F8045C3D68BE
:1025E0009D4284BF1D463B609C423AD9634518D04A
:1025F0009CF80490B9F1000F13D1644511D0BCF8D8
:102600000010AC4504BF1D463B60B1F57A6F20F861
:10261000081C06D05418A4F8028030F806EC02EB2F
:102620000E06B3420CD0307950B9AB4208BF3E60C1
:10263000B1F57A6F18BF5218318018BFA2F802E0C6
:10264000BDE8F8830025104F00F8045C3D68AB42FC
:1026500005D29C423B6004D91D46C9E770479C42A5
:10266000C6D80A48FDF7E0FF0948FDF7DDFF094835
:10267000FDF7DAFF0848FDF7D7FF00BF34B40020AC
:1026800038B4002090200110701A0020C4200110DE
:102690004C2001102820011068200110CB1C23F0D1
:1026A00003039BB20B2B3CD9B3F57A6F3CD899420C
:1026B0003AD82C4A70B5146884424AD82A4A12681B
:1026C000824246D930F808CCA0F10802121B92B21F
:1026D000ACF10801891A89B299423DD320D004EBAC
:1026E0000C0E9EF804500DBBBCF57A6F37D01F4D11
:1026F00002F108012E680B449BB2764534F80CC0F9
:1027000004EB030123D000250D7124F803C04A8097
:1027100020F8083CE25AB2F57A6F01D02244538087
:1027200070BD0C239942C4D90020704703F11405F1
:10273000ADB2A942F4D302F108010B44BCF57A6FA3
:102740009BB20CD0094DE1182E688E42DBD929606E
:10275000D9E70748FDF768FF0648FDF765FF06481B
:10276000FDF762FF34B4002038B40020701A002056
:10277000E0200110F82001101821011000285ED07F
:102780002DE9F843C31C23F003039EB20B2E27D977
:10279000B6F57A6F21D8B0421FD8344BDFF8E0800D
:1027A0001D68D8F80070C6F57A617A1B90B2814234
:1027B000034612D96FF0070E2C189C4694F804902B
:1027C0002B5A02461846B9F1000F04D1AEEB0202B3
:1027D0001A44B24206D29942EED80020BDE8F883EE
:1027E0000C26D8E706F114018A4206F1080610D239
:1027F000012323711E4BA742196821D02644B14200
:102800002DD3A30708BF04F10800E7D01948FDF74E
:102810000BFF0CEB060292B2B2F57A6F22D00120C8
:10282000A91881F80490AB52A1F802C0228020714F
:10283000AB5AB3F57A6FDDD02B445A80DAE7704794
:102840003B7923B9DAE73F882F443A7922B18F42A6
:10285000F9D1C8F80010D1E7C8F80070CEE70648F3
:10286000FDF7E2FE0548FDF7DFFE00BF34B40020AF
:1028700038B400205C2101102C2101101821011016
:10288000701A0020F0B504240027114D114B124E90
:1028900005F1240E033355F8042B23F003033760AE
:1028A0006CB10021B2F800C00A4600E003460132D4
:1028B000A242196003EB0C001946F7D13360AE4514
:1028C00004D02A685488D2E90136E3E7F0BD00BF9E
:1028D000983B0110ACAB0020D4B30020082810B501
:1028E00011D80C4B53F82040FDF7DAFDA3681C68A3
:1028F0003CB122681A60A30708D1FDF7D3FD20463A
:1029000010BDFDF7CFFD0024204610BD0248FDF7A5
:102910008BFE00BF983B0110A0210110082812D89F
:1029200038B50C4671B10A4B53F820508B070BD1C8
:10293000FDF7B6FDAB681A6822601C60BDE8384040
:10294000FDF7B0BD38BD70470248FDF76DFE00BF12
:10295000983B0110C42101106FF00B00704700BFBD
:1029600070B582B0002A2ED014460B684268054626
:1029700093420E4601D102B070BD2260204601A9EB
:10298000019301F09BFF204601A905F049FA01A936
:10299000204600F01FFE95F83920336802F005014B
:1029A00005296B6006D0EB69002BE4D028469847D8
:1029B00002B070BD002BF6D01307F4D52846291DB0
:1029C00007F088FBEFE70148FDF72EFEE421011038
:1029D000704700BF2DE9F04182B0099E002867D002
:1029E000002E65D09846089B174643620A9B454DCA
:1029F00003610023002908BF2946002A08BF2F468B
:102A0000B8F1000F08BFA8463F4A404DC0E9013366
:102A100042612A78C36080F83C2080F839308362B4
:102A2000C0E9073303860B680446002B44D03B689B
:102A300083B38360D8F8003083BB204601AAFFF738
:102A40008FFF2046B047034690BB314E94F83CC000
:102A50003068BCF1FF0F04BF9C4684F83C3000286E
:102A60003ED003464FF4807202E01B68002B37D043
:102A70009C4244D0013A13D093F83C106145F4D104
:102A80000CF1010C5FFA8CFCBCF1FF0F0BD084F849
:102A90003CC0E6E7D8F80030002BCED0E360CCE7AE
:102AA0001C48FDF7C1FD4FF0000C84F83CC0D8E78E
:102AB000002002B0BDE8F08101AAFFF751FFD4E980
:102AC00002123B68994205D1D8F800309A42B8D03A
:102AD000E360B6E7A360D8F800309A42F8D1B0E7D7
:102AE000BCF1FE0F206008BF002320461CBF0CF184
:102AF0000103DBB22B70346002B0BDE8F081064800
:102B0000FDF792FD843C01105929001088C4002073
:102B1000F4B3002008220110F4210110F0B5274D74
:102B20000446002914BF0E462E46002A14BF17463D
:102B30002F46002B18BF1D46336883B06BB10021B0
:102B40003B68A268934218BFA3602B68E268934277
:102B500018BFE36029B103B0F0BD426842B901215A
:102B6000EEE7314620466A46FFF7FAFE03B0F0BDB5
:102B7000684601A9CDE9002301F0A0FE684601A93D
:102B800005F04EF901A9684600F024FD94F83920BB
:102B9000336802F005010529636005D0E369002B65
:102BA000DDD020469847DAE7002BF7D01307F5D59C
:102BB0002046211D07F08EFAF0E700BF843C01108B
:102BC00000283CD038B543680446DBB994F8393066
:102BD000DA0728D41C4B1A68A24204BF00221A60EC
:102BE0001A4A1368A34207D02BB11A68A24206D032
:102BF0001346002BF9D138BD2368136038BD226815
:102C00001A6038BD051D0021284601F057FE00213D
:102C1000284605F005F90021284600F0DBFC94F871
:102C20003930DA07D6D523F001021B0784F83920A2
:102C300006D4E369002BCDD020469847CAE77047F9
:102C4000204606F009FFF4E7F0B30020F4B30020BB
:102C5000014B1860704700BFF0B30020F0B110B511
:102C600090F839300446DA070CD4C26943F0010306
:102C700080F8393012B1904794F8393003F00502EA
:102C8000052A00D010BD6268002AFBD01B07F9D5C9
:102C90002046211DBDE8104007F01CBA704700BF58
:102CA00018B310B590F8393004465A0700D510BD56
:102CB00043F0040380F8393006F07CF894F839309A
:102CC00003F00502052A06D0236A002BEFD0204628
:102CD000BDE8104018476268002AF5D01B07F3D5FD
:102CE0002046211D07F0F6F9EEE7704750B190F845
:102CF0003920510706D5016A22F0040280F83920F4
:102D000001B10847704700BF024658B1064B18682A
:102D100010B907E0006830B190F83C300133DBB205
:102D20009342F7D170477047F4B3002070B5054661
:102D300050B3002609E0012B21D053BB2846FFF7F2
:102D400013FC0136F6B2C4B12546FDF7A9FBAC7BF6
:102D5000E4B1013CE4B2AC73FDF7A4FB6CB92B7B8E
:102D60002C6803F00F03022BE5D129460820013619
:102D7000FFF7D4FDF6B2002CE6D1304670BD2946EF
:102D80000720FFF7CBFDDCE70646F6E70248FDF734
:102D90004BFC0248FDF748FC38220110502201107C
:102DA00008B5FDF77DFB0022084B1A70FDF77AFB92
:102DB000074B186810B908E0C06830B1436F002BAA
:102DC000FAD0BDE8084001F0C3BD08BD89C40020A9
:102DD00024C40020B2F5C17F2DE9F843894643D0D1
:102DE0004FF0000661F30F06154661F31F4607D842
:102DF00022F04003012B9CB227D03B48FDF714FC86
:102E0000B2F5207FF9D1C31C01F1030929F00309B0
:102E100023F003034B449BB204464B4503F11000DF
:102E200080B25ED381455CD8FFF7A8FC8046C0B174
:102E3000002203192D49133323F00303C160C0E9B5
:102E4000013602604046BDE8F8830720FFF746FDE3
:102E5000804630B10023C0E9003386600573C48129
:102E600043734046BDE8F8830024074640F2EC5621
:102E7000A0461F4D05E02060B9F1000FF1D00446D7
:102E800000270820FFF72AFDF0B1FB1C23F0030305
:102E9000F31A9BB24B4528BF4B4600220744133719
:102EA00027F003074381A9EB0303A0F808904760CC
:102EB000C56002601FFA83F9B8F1000FDBD18046CC
:102EC000B9F1000FDBD1CCE7FDF7EAFA0122094B9B
:102ED0001A70FDF7E7FAB8F1000F02D04046FFF78D
:102EE00025FF4FF00008BCE76422011080000100BC
:102EF0008200010089C4002038B5002834D004467F
:102F0000008988421CD9081A06E02389891A0344DB
:102F10002381246889B20CB362898A42F5D30025E3
:102F2000237B61F30F051B0761F31F4501D18A4223
:102F300007D12068A56008B1FFF7F8FE00232360E1
:102F400038BD636820461B1B194489B2FFF7A6FBF6
:102F500038B18442EDD00648FDF766FB0548FDF721
:102F600063FB0548FDF760FB0448FDF75DFB00BF10
:102F7000CC22011098220110B022011080220110F1
:102F800010B5F0B1B1F5803F0BD2C1B103898AB25F
:102F900013449BB29A4204D890F90CC0BCF1000FC4
:102FA00001DB012010BD446800F1100C611A61457D
:102FB000F7D3B0F80AC04160624442810381002027
:102FC00010BD0148FDF730FBE822011010B598B1A3
:102FD000B1F5803F0ED259B143898AB29A4209D8DD
:102FE00044689B1A0C44018944608A1A4381028117
:102FF000002010BD012010BD0148FDF715FB00BFEA
:10300000E8220110002910B514DB48B381B103890F
:103010008AB213449BB29A4220D84468611A90F94C
:103020000C40002C16DB448941602244428103811C
:10303000002010BD494298B143898AB29A420DD806
:1030400044689B1A0C44018944608A1A43810281B6
:103050000020EEE700F11004A142E4D2012010BDEF
:103060000148FDF7E1FA00BFE822011008B1FFF7BF
:103070005DBE08B50148FDF7D7FA00BFE822011090
:10308000034630B100201B68013080B2002BFAD11A
:103090007047704758B110B50446FDF701FAA37B9D
:1030A0000133A373FDF7FEF9A37B0BB110BD70478D
:1030B0000148FDF7B9FA00BFF4220110C8B1C1B14F
:1030C000884210B518D002680AB913E02246038975
:1030D000B1F808C01468634403811046002CF5D190
:1030E0001089538983420AD10889116003441381EE
:1030F00010BD70470246F3E70248FDF795FA024813
:10310000FDF792FA082301102423011010B50C4694
:10311000F0B1E1B188421ED003683BB10289218938
:103120000A44028118461B68002BF7D102894389A3
:10313000934216D12289046013440381FDF7B0F94C
:10314000A37B0133A373FDF7ADF9A37B33B110BDAE
:103150000029F3D110BD0448FDF766FA0348FDF7D6
:1031600063FA0348FDF760FA08230110F422011006
:1031700024230110002900F099802DE9F8431F460F
:103180000B89884693421546C0F087800646002882
:1031900000F0838002897B199A427EDB4FF00009A0
:1031A0007489B8F80A30E41BA3EB09039C4228BFDA
:1031B0001C46AC4228BF2C467068D8F8041038442E
:1031C000494422460EF05AFD738927442D1BBB4209
:1031D000A144ADB267D3B8F80A204A4560D312D0F3
:1031E000BB4224D0B8F8081091421BD032899A42D1
:1031F00002D0002DD4D13AE03368002BF9D06FF023
:103200000500BDE8F883D8F80080B8F1000F19D0A8
:10321000BB424FF000090AD0B8F80A20B8F80810ED
:103220009142E3D1D8F80020002ADFD0E7E73668E2
:10323000B6B1B8F80A20B8F808309A421AD0002778
:103240007389D3E74DBBBB421AD032899A420ED163
:103250003368002B14BF6FF005000020BDE8F88331
:10326000DDB9B8F80820B8F80A309A420DD000202D
:10327000BDE8F883D8F80070002FC0D17389B5E796
:103280003668002EF3D07389DFE7D8F80030002BC2
:1032900014BF6FF005000020E0E76FF00F00DDE7DE
:1032A0000448FDF7C1F90448FDF7BEF96FF00F00BF
:1032B000704700BF6C2301105423011019B1002383
:1032C0000A89FFF757BF6FF00F0070472DE9F041F3
:1032D000054670B10F4681B3164692B3B5F80AC0E1
:1032E0005BB16345A3EB0C0207D32D6893B2002DAD
:1032F000F4D1A8464046BDE8F0814FF0000804E054
:10330000002DF7D00023B5F80AC0ACEB0304A4B23B
:10331000B44228BF34466968361B224607EB0800D2
:1033200019444444B6B20EF0A9FC1FFA84F82D6883
:10333000002EE5D14046BDE8F08188464046BDE814
:10334000F0819046D6E700BF48B32DE9F8438846A0
:1033500011B3038905469342914617D39AB1164695
:10336000002700E0ADB16C896868B44228BF3446DC
:1033700008EB070122460EF081FC361B2D6827441E
:10338000F0D1B9450ED10020BDE8F8834FF0FF30F1
:10339000FAE70648FDF748F96FF00F00F4E76FF021
:1033A0000F0070470248FDF73FF900BF8823011066
:1033B000A023011000284AD02DE9F04705460E460B
:1033C00004E02D68DB1B9BB2002D3DD06F899F422E
:1033D000F7D9298903EB0209494535DB68681844A8
:1033E000FB1A9A422ADD9CB2A9EB07092246314614
:1033F0001FFA89F90EF042FCB9F1000F21D02F68B5
:103400005FB33B894B451FD3C8464FF0000A00E02D
:1034100007B37D8904EB0A01454528BF4546786816
:103420002A4631440EF02AFCB8EB05083F68AA444E
:10343000EED1D14505D00A48FDF7F6F831460EF039
:103440001DFC0020BDE8F0874FF0FF30FAE74FF099
:10345000FF3070470348FDF7E7F86FF00F00F1E722
:10346000A02301108823011038B514460A4621898B
:10347000FFF7B0FC054628B1002321462289FFF75B
:1034800079FE08B9284638BD0148FDF7CDF800BFE0
:10349000B823011018B90AE0006899B230B1438925
:1034A0008B42A1EB0303F7D943685A547047704726
:1034B0002DE9F84F8046434FDFF814A13968786949
:1034C00007F0CCFED8F80430DAF800405D7A002C22
:1034D00072D0002836D1064604E0E2682646002A6B
:1034E0002ED01446227CAA42F7D1217A31B17A68D3
:1034F00092F83C200132D2B29142EED1216811B152
:103500007A699142E9D1627CD10703D561683A6951
:103510009142E2D1D4F81490B9F1000FDDD09B466E
:1035200042462146284BA069C84700283AD1D8F81E
:1035300004309B4542D1E26802202646002AD0D1C1
:10354000BDE8F88F0020064604E0E2682646002A1F
:10355000F6D01446227CAA42F7D1217A31B17A689A
:1035600092F83C200132D2B29142EED12268002A78
:10357000EBD1627CD20703D561683A699142E4D10C
:10358000D4F81490B9F1000FDFD09B464246214693
:103590000D4BA069C84728B9D8F804305B450DD158
:1035A0000220D2E736B1E268DAF80030F260CAF8F9
:1035B0000040E3600120C3E72046C1E70348FDF770
:1035C00033F800BF541A0020641A0020CC230110E5
:1035D000F8C3002088B102687AB171B10B6863B199
:1035E0000A4B1B684BB110B41C68944206D0DB68D0
:1035F000002BF9D15DF8044B704770470A681A60D8
:10360000DB68002BF6D00268EEE700BFF8C30020AD
:10361000704700BF10B5E8B1037D0446042B03D00A
:10362000072B0BD0032B07D103F07EF958B90523E4
:103630002046237503F062FC002010BD03F074F9EE
:1036400008B90923F4E7431CF7D1638B43F008035F
:103650006383F1E70148FCF7E7FF00BF182401107E
:1036600070B50646806F18B1FFF700FD0023B36701
:10367000746FB4B1D4E9005058B1FFF7F7FC21469C
:103680000420FFF74BF955B12C46D4E9005000282F
:10369000F3D121460420FFF741F9002DF4D1002396
:1036A00073674FF6FF73F46E3386A4B1D4E900500C
:1036B00058B1FFF7DBFC21460420FFF72FF955B185
:1036C0002C46D4E900500028F3D121460420FFF70E
:1036D00025F9002DF4D1346FA4B1D4E9005058B1CC
:1036E000FFF7C4FC21460420FFF718F955B12C461A
:1036F000D4E900500028F3D121460420FFF70EF949
:10370000002DF4D10023C6E91B33A6F8683070BD44
:1037100008B5FDF733F96FEA80406FEA9040014B3E
:10372000188008BD3808002008B5037D012B05D09E
:10373000BDE8084001460220FFF7F0B80148FCF759
:1037400073FF00BF24240110F8B52E4B002914BFCD
:103750008C469C46002852D0037D002B4CD12AB3C6
:10376000294D05F1100E2B681B6813B90EE0DB68BC
:1037700063B1D98A9142FAD1196821B1DCF80040CD
:103780000CB1A142F3D16FF00700F8BD0435AE458E
:10379000E9D1DCF8003003B103601C4BC2821A6827
:1037A0001860C26003F042FF0020F8BD4FF480456E
:1037B0004FF6FF7E164E174F3288013292B2724595
:1037C00008BF4FF44042104C23681B6813B90CE04B
:1037D000DB6853B1D98A9142FAD1013DADB2002DD7
:1037E000EBD132806FF00100F8BD0434BC42EBD164
:1037F0003280002ACDD1F5E76FF00500F8BD6FF0FB
:103800000F00F8BD843C0110283C011028C40020A2
:1038100038080020383C011038B5002835D0037D29
:103820000446002B31D10320FFF758F80546002845
:103830002BD001222169E38A02750161C382627D76
:103840004275A26882602268026083B9237D012BE1
:1038500026D021460220FFF761F8134B13491A685E
:10386000A961EA601D6003F0E1FE284638BD104AF8
:1038700013689C420CD02BB1DA6894420BD01346EB
:10388000002BF9D10023E360E0E70025284638BD8E
:10389000E3681360F6E7E268DA600023E360D5E7E7
:1038A0000448FCF7C1FE00BF30C40020D94100101D
:1038B00028C400202424011038B5F0B1034641F299
:1038C000D06E018DC26A446A5D8E881A75452044A7
:1038D00094BFA0EB050CA0EB0E0CBCF1000F06DAB8
:1038E000121B06D4B2F5803F0AD2002091B259854E
:1038F00038BD00210846598538BD0348FCF794FEC1
:103900000248FCF791FE00BF382401105C2401102E
:10391000002837D038B5037D012B3AD042F6A053AA
:10392000028D114489B299421AD9194641F2D06EDA
:10393000C26A458E446A754594BF02EB050C02EBE2
:103940000E0C2344A3EB0C0CBCF1000F01850BDA29
:10395000121B18D4B2F5803F38BF428516D238BD4D
:103960008A42E2D80B46E1E740F667349B1AA3424D
:103970004185F4D9438B43F002034383BDE83840CB
:1039800003F0BCBA70470023438538BD0248FCF7FA
:103990004BFE0248FCF748FE5C240110782401101D
:1039A0002DE9F04F4FF00008AD4EAE4F32683B7836
:1039B00001320133DFF8C09287B032603B70AA4B0E
:1039C0001B680493002B64D00024049B1A7D002AFA
:1039D00000F02482012A00F01E820A2A00F02182CF
:1039E0003978987F884200F04981022A997793F8C4
:1039F000421000F0A3800B2940F2AF804FF0010B82
:103A0000062A049B00F0D680597A0B0740F19A8071
:103A1000042A40F0D081049B3168186AD3F894508E
:103A2000091AD3E926C000FB0C50904BA3FB00E021
:103A3000B1EB501F40F2A6814FF0010A0BF1010BD0
:103A40005FFA8BFB049B5D6F002D00F0C380049B2D
:103A5000B3F9402002EB4202B1EB420F80F06881E3
:103A6000049B1A7D032A60D0092A27D0BBF1000FDE
:103A700040F0B080049B1A7F597F0132D2B291424C
:103A8000DD681A7740F2C5802B46049C0495002B14
:103A90009BD1774D0024296869B10B7D0A2B40F03A
:103AA000C38133680A6A9B1AF02B00F2C8800C4667
:103AB000C9680029F1D107B0BDE8F08F3268196AF2
:103AC000521AF02A36D9D3F890500498FFF7C8FD5F
:103AD000654B1A68049B002C00F07F81934200F034
:103AE000A681DA68E260BAF1000F40F06881049BB9
:103AF0001A7DD3E903BA012A00F09C8119460220FD
:103B0000FEF70CFF89F8008045B16FF00C015046BC
:103B1000A84799F80030002B7FF451AF5B46CDF8F1
:103B200010B0002B7FF451AFB3E73268196A521A14
:103B3000282AC8D8BBF1000F9CD0C4E705290CD9AE
:103B40004FF0010B049B5D6F002D00F0198131686F
:103B50001A6A4FF0000A891A79E7049B93F8A1B01A
:103B6000BBF1000F00F09180186F002840F06881D1
:103B7000D96E002900F0678193F8A2100B293FF657
:103B80003DAF3C498B441BF8015C93F8A010A9425F
:103B9000C0F02E81049BB3F860502DBB18469A46A6
:103BA00003F020FC38B39AF81420AB46062A049B95
:103BB0007FF42AAF598BC80600F1D580597A0907DE
:103BC000C0D4049B5D6F002DC1D1AA46BBF1000F8C
:103BD0003FF450AF049B012AD3F890507FF678AFA2
:103BE0000A2A7FF472AF73E71846294602F0DCFD1B
:103BF000002800F00681049B4FF0000B93F8A120F1
:103C000083F8A080062A9CBF013283F8A1201A7D88
:103C1000F6E6D3F88C2083F81C8089F8008052B136
:103C200019461869904799F80020002A7FF4C7AE1A
:103C300000287FF429AF049803F060F924E72B688B
:103C4000002C00F0D080994200F00081CF68E7603E
:103C50000220FEF763FE394600297FF41EAF2AE7F3
:103C600034C400208EC4002024C40020D34D621030
:103C700038C40020383C01108CC400201C46DB688E
:103C80000493002B7FF4A1AE03E747F6FE75B3F96A
:103C9000301088B2A84202D8013001B21986049BC4
:103CA000B3F9400088423FF7ABAE18461D4602F01C
:103CB00043FF2A7D40B1296F00297FF4A1AE049B08
:103CC000D96E00293FF49CAE022A15D0049B47F61A
:103CD000FF7193F8422060480C2A28BF0C22B3F9E8
:103CE0003C50805CB3F93E2002EBE50282408A4200
:103CF000A8BF0A46A3F84020049DB5F84810B5F8BF
:103D0000602028468A4228BF0A46698E5208A5F8D4
:103D10004810490089B28A4238BF0A46A5F8308067
:103D2000A5F84A20A5F86A8003F0B4FA2A7D67E670
:103D30000594D5E9004058B1FFF798F929460420C9
:103D4000FEF7ECFD54B12546D5E900400028F3D13B
:103D500029460420FEF7E2FD002CF4D1DDE904340D
:103D6000C3F874807CE63168186A091A28297FF63E
:103D700028AF0BF1010B4FF0000A5FFA8BFB61E6F5
:103D8000AA466DE6049B93F8A300344B0CFB005548
:103D9000A3FB0505B1EB551F7FF613AF049D284625
:103DA00003F0CCFA00287FF4CDAE95F8A3200132C1
:103DB00085F8A320C6E6072A3FF42DAEC2E6049B91
:103DC000188B5A6A196D0290D88A05920190181DB5
:103DD0000090184602F058FF89E693422DD1DA6828
:103DE0001F4B1A607FE6994233D1CF682F602FE7CF
:103DF0000131C9B2A94283F8A010BFF4CBAE83460B
:103E0000FEE5049D284603F079F800287FF4F3AE20
:103E100083462A7DF4E51348FCF706FC1248FCF7BC
:103E200003FC1248FCF700FC1148FCF7FDFB1148AD
:103E3000FCF7FAFB1048FCF7F7FB1048FCF7F4FB23
:103E40000F48FCF7F1FB0F48FCF7EEFB0E48FCF7C0
:103E5000EBFB0E48FCF7E8FB403C0110D34D621031
:103E600024C40020CC240110A0240110F824011047
:103E7000E82501109025011024240110BC25011013
:103E80002425011058250110182601104026011084
:103E9000B8B138B50446D4E9005058B1FFF7E6F898
:103EA00021460420FEF73AFD55B12C46D4E90050D6
:103EB0000028F3D121460420FEF730FD002DF4D177
:103EC00038BD704758B110B50446406808B1FFF7D7
:103ED000CDF82146BDE810400420FEF71FBD704715
:103EE00038B590B105460420FEF7F8FC044650B101
:103EF00068682968AA68EB68606060682160A260F1
:103F0000E360FFF7C7F8204638BD0148FCF78CFB9B
:103F10006826011000B10161704700BF30B108B5DB
:103F2000037D012B03D0C0F8841008BD7047014801
:103F3000FCF77AFB8426011030B108B5037D012B14
:103F400003D0C0F8901008BD70470148FCF76CFB27
:103F5000AC26011018B1037D012B08BF81617047A9
:103F600030B1037D012B03D90A2B01D0FFF778BBB9
:103F7000704700BF10B500294DD000284ED003680F
:103F80000C468B422AD02BB1DA68A2422ED01346BF
:103F9000002BF9D10022237DE2607BB9638BDA0725
:103FA0002CD4E36E002B3CD1236F002B3CD1636FEC
:103FB000002B3CD100232375E38210BD0A2BF0D0E7
:103FC000012BF7D02046FFF74BFB237D0A2BE8D0CF
:103FD000012BE3D100232375E38210BD0022CB68BF
:103FE0000360237DE260002BE8D1D7E7E268DA6066
:103FF0000022237DE260002BE0D1CFE743F00203F3
:104000006383204602F07AFF237D012BC9D1002370
:104010002375E38210BD0748FCF706FB0648FCF752
:1040200003FB0648FCF700FB0548FCF7FDFA0548D2
:10403000FCF7FAFAD4260110F0260110102701101F
:104040002827011044270110002800F0AD802DE939
:10405000F04F037D0546012B87B000F0A9800A2BA5
:1040600000F09480D0F89020D0F850A0D0F824B080
:10407000D0F81090B0F816800592002B5BD1B8F103
:10408000000F64D14FF0000846462C6FA4B1D4E96C
:10409000007058B1FEF7EAFF21460420FEF73EFC0F
:1040A00057B13C46D4E900700028F3D121460420E2
:1040B000FEF734FC002FF4D1EC6EA4B1D4E900700B
:1040C00058B1FEF7D3FF21460420FEF727FC57B175
:1040D0003C46D4E900700028F3D121460420FEF7C5
:1040E0001DFC002FF4D16C6FA4B1D4E9007058B15D
:1040F000FEF7BCFF21460420FEF710FC57B13C46FA
:10410000D4E900700028F3D121460420FEF706FC14
:10411000002FF4D156BB2B7D012B46D0294602201F
:10412000FEF7FCFB059B7BB16FF00C01484607B026
:10413000BDE8F04F18470E4601461F48FFF71AFF2B
:1041400001221E4B1A70A0E707B0BDE8F08F1C4A91
:104150001368834217D033B1DA68AA4201D01346FC
:10416000F9E7EA68DA600023EB608BE7CDF80480BA
:104170002B8B5A4602932B1D009351462B46284603
:1041800002F082FDC7E7C3681360ECE701460D4803
:10419000FFF7F0FE2B7D012B07D02946022007B048
:1041A000BDE8F04FFEF7BABB70470748FCF73CFA92
:1041B0000648FCF739FA00BF24C400208CC4002054
:1041C00028C4002038C40020242401105C270110DA
:1041D0000121FFF739BF00BF08B531B10846012101
:1041E000FFF732FF6FF00C0008BD0148FCF71CFA26
:1041F00090270110F8B506460220FEF76FFB044633
:1042000038B3A422002120460DF0B0FCFF224FF06D
:10421000061142F6A050554BE272A3620923544A9C
:10422000544D1278C4F83E10A277534A5349C4F84B
:104230008420534A2D686675A4F86400514E524894
:10424000C4E9251226632562A064C4F89C30204688
:10425000F8BD4E4F3D685DB12846438BED681A07A7
:10426000F9D523F008034383FFF7D4F9002DF3D1E8
:10427000474B1B688BB100213E4A10681A6A821AAC
:10428000914298BF1C46DB6898BF1146002BF5D1C0
:104290001CB101212046FFF7D7FE0220FEF71EFBCE
:1042A00004460028ADD1396891B12246314B1868D7
:1042B0000B7D092B05D10B6AC31A9A429CBF0C4691
:1042C0001A46C9680029F3D114B12046FFF7BCFE95
:1042D0000220FEF703FB0446002892D1396891B111
:1042E0002246244B18680B7D082B05D10B6AC31A94
:1042F0009A429CBF0C461A46C9680029F3D114B1F2
:104300002046FFF7A1FE0220FEF7E8FA0446002847
:104310007FF477AF330626D4EEB132463B68013ADC
:10432000D2B2C3B1134900250F6805E0186A0A46E6
:104330001C463D1ADB684BB1597D9142F6D3F9D149
:10434000186AA7EB000CAC45F4D3F0E71CB10121CF
:104350002046FFF779FE0220FEF7C0FA0446002847
:104360007FF44FAF73E77F22D8E700BFA02DA02DC9
:104370008EC4002034C400202145001000DD6D00F3
:10438000F8240100FFFF18020100A02D24C4002022
:1043900038C400204020FFF72DBF00BF10B584B007
:1043A000002800F0A0800446037D19B1042B17D02B
:1043B000072B15D0012B6BD0022B47D0002B5BD1E4
:1043C000E38A002B4CD04C4A1368A34200F088804B
:1043D000002B00F08280DA68A2427CD01346F7E717
:1043E000A36F002B43D0638BDB0640F18280208BD0
:1043F000E28A211DCDE90120626A00912346204610
:10440000216D02F041FC237D012B04D90A2B02D03F
:104410002046FFF725F9394A1368A34235D033B156
:10442000DA68A24201D01346F9E7E268DA600020B8
:104430000121334B334A1B68E060A342117021D045
:10444000237D012B0CD13048FCF7EEF821462B4898
:10445000FFF790FD0121237D2A4A8B421170F2D093
:1044600021460220FEF75AFA002004B010BD42F6A1
:10447000A053228D9A42B6D1204604B0BDE8104028
:10448000FFF7C8B801F0BAFEEEE7E3681360CEE7C5
:1044900000201E4901F10C0C51F8043F1A682AB1A2
:1044A000D36F9C4212D0D268002AF9D18C45F3D147
:1044B00021461748FFF75EFD237D012B16D02146CC
:1044C0000320FEF72BFA002004B010BDD067D2689D
:1044D000002AE5D1EAE7E268DA600023E360BFE79B
:1044E000E3681360F9E70B48FCF79EF80A48FCF70D
:1044F0009BF80A48FCF798F828C4002024C4002040
:104500002CC400208CC4002024240110283C01105D
:1045100030C40020B0270110EC270110D027011073
:1045200000294FD070B50846154662B30B7D012BAC
:104530004BD042F6A051028D2B8913449BB28B4283
:104540001DD90B4641F2D06CC46AB0F832E0466A1D
:10455000E64594BF04EB0E0204EB0C0231448A1AC8
:10456000002A038515DAA41B10D4B4F5803F38BFA8
:1045700044852DD22846FEF779FD002070BD9A4271
:10458000DFD81946DEE78BB1002070BD00234385DC
:10459000F0E740F66732091B91424385EAD9438B25
:1045A00043F00203438302F0A9FCE3E70B7D012BF8
:1045B00003D04B8B43F010034B830121BDE87040C7
:1045C000FFF7ECBE6FF00F0070470348FCF72CF8C4
:1045D0000248FCF729F800BF782401105C24011080
:1045E000002831D0F8B50023856FD0F884606F7B48
:1045F0000446836756B101462A460069B04758B160
:104600000D301ED06FF00400A567F8BD2989FFF7B3
:104610007FF92846FEF72AFDBB0610D542F6A052C8
:10462000238DD4F8845093421CBF0133238535B1C8
:10463000002321461A462069A8470D3001D00020EA
:10464000F8BD6FF00C00F8BD6FF00F00704700BFB1
:104650002DE9F84300271C4DDFF874802B781B4EA2
:1046600001332B70D8F80040BCB1A37F2A78934265
:1046700015D0638BA277D9071AD41A0711D4A36F68
:10468000D4F80C9033B120463770FFF7A9FF337888
:10469000002BE7D14C46002CE7D1BDE8F883E46855
:1046A000E2E723F0080320466383FEF7B3FFE6E763
:1046B00043F002036383204602F020FC638B23F067
:1046C00003039BB26383D8E78EC400208CC4002010
:1046D00024C4002008B5FFF7BBFF064A1378013356
:1046E000DBB21370DB0700D408BDBDE80840FFF75C
:1046F00057B900BF8DC40020002800F0A28010B57B
:10470000037D0446012B84B070D0428B042B42F011
:104710001002428334D1A36F002B44D0208BE28A55
:10472000211DCDE90120626A009123462046216DBA
:1047300002F0AAFA237D012B04D90A2B02D02046CD
:10474000FEF78EFF424A13689C4237D02BB1DA68DD
:10475000944248D01346002BF9D1002001213D4B53
:104760003D4A1B68E0609C4211702AD0237D012BDA
:1047700036D021460220FEF7D1F8002004B010BD4B
:10478000072BC8D0022B21D012D8C38A002BF0D01F
:10479000324A1368984251D0002B4CD0DA689442C8
:1047A00047D01346F8E742F6A053228D9A42B5D17E
:1047B000204604B0BDE81040FEF72CBFE36813604C
:1047C000CBE701F01BFD002004B010BD01462048DE
:1047D000FFF7D0FB0121237D1F4A8B421170C8D106
:1047E0001F48FBF721FFE268DA60B6E700201D49A9
:1047F00001F10C0C51F8043F1B682BB1DA6F9442A5
:1048000012D0DB68002BF9D16145F3D1214616485F
:10481000FFF7B0FB237D012B16D021460320FEF7C6
:104820007DF8002004B010BDD867DB68002BE5D10F
:10483000EAE7E268DA600023E3609AE7C36813609E
:10484000F9E76FF00F0070470848FBF7EDFE00BF77
:1048500024C400202CC400208CC4002028C40020C4
:1048600024240110283C011030C40020EC27011042
:1048700008B530B1044B054A186812681044186036
:1048800008BD0348FBF7D0FE3408002034C40020E4
:104890000828011008B55AB149B10B8E3BB1282B3D
:1048A00038BF2823283B9BB2984228BF184608BD32
:1048B0000148FBF7B9FE00BF2428011000283FD0B3
:1048C000036870B5054603B970BD1E4A0E461068F0
:1048D00078B10268C4689A4206D054B120462B6869
:1048E0000268C4689A42F8D10121FFF7ADFB002CA1
:1048F000F4D1154B1C6854B122682B6820469A42AB
:10490000E468F8D10121FFF79FFB002CF4D1002EC1
:10491000DAD03368002BD7D00C4B1A68002AD3D0DA
:104920002B681168994205D0D268002ACCD0116852
:104930009942F9D133681360D268002AF0D170BD72
:10494000704700BF24C4002028C4002030C40020C9
:1049500070B5446FBCB10646D4E9005058B1FEF7BB
:1049600085FB21460420FDF7D9FF55B12C46D4E93B
:1049700000500028F3D121460420FDF7CFFF002D81
:10498000F4D10023736770BD644B2DE9F0431E889A
:1049900076B30024624B634D1F682C80002F79D0C2
:1049A0002246614BDFF88481B3F800C09646531C61
:1049B0009BB2A3EB0C01013996421FFA8EF9C9B2E2
:1049C00040F2A480CC4515D8795C012918D0022981
:1049D0001AD061B19C4558D9544909680B441B7DD4
:1049E000012B40F2988013449AB20124DEE72B8019
:1049F000BDE8F083D8F800107144097D0129E6D1A3
:104A000001241A46A644D2E7911C9C4589B227D9B5
:104A1000464C246823441B7D042B27D14B1CB342F6
:104A200024DAD31C8C4502F104029BB292B21FD847
:104A3000A1EB0C01C9B2795C9C454FEA01211FD85A
:104A4000A3EB0C03DBB2FB5C40F2B35E40F2B45468
:104A50000B43591E89B2714588BF23464386C4E77C
:104A6000A3EB0C03DBB2FB5C042BD7D02980BFE7A0
:104A70002E4C9C4524682144097D4FEA0121DFD951
:104A80002A4C246823441B7DDEE7A3EB0C03DBB236
:104A9000FB5CA5E73C462246244B02F114011F684B
:104AA000531C96429BB231D97C5C012C2BD0022C3A
:104AB0000BD0002C9BD03B441B7D012B2BD91344E6
:104AC0009AB2012402F11401EAE73B441B7D911CD8
:104AD000042B89B2CAD14B1CB342C7DA40F2B35C93
:104AE00040F2B454D31C394417FA83F3097D1B7D7B
:104AF000043243EA0123591E89B2614588BF234627
:104B000092B24386DDE71A460131C9E7002C3FF433
:104B10006FAF2A806CE702322A8069E77EC40020EA
:104B200040C400207AC400207CC400203CC4002083
:104B3000F8B5C368054698890C46FDF703FAC20725
:104B400034D41C4EE1682B8937684868B4F808C033
:104B50003B441A1AA2EB0C02002A1CDB8889FDF7E1
:104B6000F1F9C30708D420462468FFF7ABF9002CFD
:104B7000E8D100242C60F8BDEB6801209F89FDF787
:104B8000E1F9EB680743204624689F81FFF79AF913
:104B9000002CD7D1EDE7C31A002BEBDAC11B89B289
:104BA00068682981FEF7A8F92C60F8BD2046FFF758
:104BB0006FF9DEE70CC40020002944D02DE9F84F3E
:104BC00006460C469146DFF89C80234FE368D8F8F0
:104BD00000505868FDF7BAF9E36882469889B4F83E
:104BE00008B0FDF7AFF910F0030018BF0120A5EBE6
:104BF0000A05A5EB0B052D1A002D21DBD4E9005089
:104C0000FEF73EFAB6F8663098421ED839882289F7
:104C10001B1A0A44A6F8663020463A80FFF752F97C
:104C2000B6F8663043B10DB12C46CFE7B9F1000FAD
:104C30000ED00020BDE8F88F002DFAD02C46C5E735
:104C40002046BDE8F88F002070470448FBF7ECFCD5
:104C50000348FBF7E9FC00BF78C400204C28011092
:104C6000742801107C0A00202DE9F84F027D032AE8
:104C700040F20D849B4B04461B789B4ED80648D4CB
:104C80009A4F38883368002800F08C80227D062AED
:104C900000F28880626AD11AB1F1010CA3EB02051F
:104CA00000F1308105F1FF3E1EEB000F00F12A817B
:104CB0008F4D6868002800F018844FF6FE73994203
:104CC00000F21084028989B28A42C0F008842B89DC
:104CD000521A5B1A2B81438992B299420AD94FF03A
:104CE000000CA0F80AC002810068C91A438989B281
:104CF0008B42F6D3FEF76AF9636AEA683360536061
:104D0000238D002B40F015822046BDE8F84F02F0BD
:104D100093B83368606DDFF8E881C51A002DB4F8E8
:104D200060E0D4F85890D8F8001051DB98424BD08E
:104D3000894500F02D81656CF446681A0028CA4642
:104D40005ADB6A4F3888002800F0C080656B002D60
:104D50009DD0A36B5B1A002B93DA664BB4F93C2011
:104D60001888C2F3CF01ADB2431A5B1B9BB21A4441
:104D700012B213F4004FA28702D0091A0D44ABB24D
:104D800000216163B4F93E103888A1EBA1010B4406
:104D90009BB203EBE202E387A4F8402033680028CB
:104DA0007FF474AF626A991A002907DB218D013AFA
:104DB0000A44D31A002B01DBBDE8F88F638B43F064
:104DC00002036383BDE8F88FA9EB01000028AFDA86
:104DD00049480068B0F80EC0B4F86200656C6045E0
:104DE000A5EB010038BFA4F862C000288A46C4E9D8
:104DF0001531A4F860C0A4DAEB43CB4200F1D080B7
:104E0000236D5B1A002BC0F2CB80628BB4F84A0092
:104E100012F0040340F042814D1BA4F8423061645B
:104E2000E38FB4F93C10ADB203EBE103B4F84810E2
:104E3000A4F84030814228BF084680F0438112F434
:104E4000006F0CBF02220122638E13FB02F39BB2A0
:104E5000AB4294BFCA184A1993B28B4280F0488182
:104E60004FF6FF73A4F84830D4E91B212046FFF722
:104E7000A3FE0246E16E22672046FFF79DFE002357
:104E8000226F2377B2FA82F35B095B42E0662386E6
:104E9000002800F03081194B1988B4F864300B44B5
:104EA000A4F86430638B19057DD5002A00F08A814F
:104EB000D3685868FDF74AF8E36CC01A002872DB23
:104EC000638B0A4F23F4006363836DE00CEB0A02EB
:104ED000CE44724500F0C880656B002D7FF439AF79
:104EE00060E700BF86C400200CC4002080C40020FE
:104EF000441A002034C400203CC4002078C40020A0
:104F00007C0A0020002DC0F2AA80218D11EB0C0F2D
:104F10003FF5FAAE934200F0DF82656F002D00F09E
:104F20007E81E86842689A4200F0E880991A002978
:104F3000C0F23E8203F1FF3CA8462D68002D3AD016
:104F4000E86842689A4200F0DB80D8F80C104968A3
:104F5000ACEB01010029EFDBD11A0129ECD4B248F6
:104F6000FEF7BEFF074600283FF4CEAED8F80C305F
:104F700032685968B8F808300B44D31A002BC0F2D5
:104F8000538229463846C8F80070FFF7D1FDBBE6CA
:104F9000A6480068B0F80EC0E645BFF4CCAE1BE7EB
:104FA000204601F049FFA24F656B002D3FF469AE2A
:104FB000D8F80010CDE6D21A002ABFF6A5AE808937
:104FC000FCF7C0FFC1073FF59FAE9748FEF788FF8B
:104FD000C8F8000000283FF497AED8F80C30B8F8B5
:104FE00008205B6831681A448A1A002AC0F252828B
:104FF0003A88636A9B1A228D13445B1A002BBFF612
:1050000083AED8F80030DB689889FCF79BFFC207B5
:10501000D8F8003000F14882218D32685868891A2A
:10502000626A114489B21981FDF766FFD8F8003031
:105030001D89DB689889FCF785FF10F0030318BF12
:10504000012331682B449BB21944228D3B80636A53
:10505000134499423FF458AE7648FBF7E5FA638B68
:1050600043F0020363834FE6B4F93020002AFFF6D1
:1050700033AF8D427FF430AF94F84320FF2A00F025
:10508000AB810132D2B2032A84F8432000F2A4811A
:105090007FF422AF204601F0C5FD85E722F004022F
:1050A000628300224D1BE38F6164B4F93C10A4F8C5
:1050B000480003EBE103ADB2A4F84030A4F86A2045
:1050C000A4F84220B4F86A201544ABB29A4204D83E
:1050D000834204D2A4F86A30C6E64FF6FF731B1A67
:1050E000A4F86A30638E03449BB28342FFF4B8AEE7
:1050F000A4F84830B8E6A4F86800CCE64FF0000801
:1051000049482B8902899A427FF6FEAD2B68002B15
:105110003FF4FAADFEF7E4FE00283FF4F5ADB8F138
:10512000000F00F08A81C8F800002946FFF700FD53
:10513000EAE513469889B5F80880FCF703FF10F0FC
:10514000030018BF0120228D08EB00039BB293429D
:105150003B8071D8616F002900F03581EB68988938
:10516000FCF7F0FEC207D4F874801ED4B8F1000F2B
:1051700000F04681D8F80C003B88D6F800E0D0F863
:1051800004C0B8F8082003EB0E0162448A1A002A12
:10519000C0F22E818089FCF7D5FEC30722D4404699
:1051A000D8F80080FEF78EFEE0E7B8F1000F00F0BF
:1051B0000E81D8F8003040466367FEF783FED4F8CE
:1051C0007480F2E748B1C3685868FCF7BFFEE36C2F
:1051D000C31A002BFFF6E7AE638B23F40063144F72
:1051E0006383E1E6EB689889FCF7ACFE8007D6D4D0
:1051F000EB680120B3F80C90FCF7A4FEEB6849EAD9
:105200000000988180B2B5F80890FCF79BFE10F082
:10521000030318BF01239944A7F80090BFE7024891
:10522000FEF75EFE60676FE5441A00203CC4002074
:1052300080C40020E0280110EB689889FCF782FE0A
:10524000EB68B3F80C80C30700F1DE80238D404685
:105250002B81FCF777FE8007298902D5013989B2B5
:1052600029816868FDF748FEEB68B5F808809889E1
:10527000FCF768FE10F0030318BF0123228D31688C
:10528000606A43449BB21944104481423B807FF4DE
:10529000E3AE606F00287FF461AF9342616200F279
:1052A0001881D31A23852046FEF706FB6B681A89FE
:1052B0001AB18F4A136000236B60EB689889FCF782
:1052C00041FEC20704D58B4A137843F020031370C4
:1052D000656F002D5FD04FF00009DFF81482854F15
:1052E0001AE0FDF7EBFEC5F80490EB689889FCF72F
:1052F00029FEC30708D53B7843F020033B70237D8C
:10530000042B04BF072323752B6828466367FEF729
:10531000D9FD656F002D3ED0E968626A4B68934203
:1053200039D133608889B5F808A0FCF70BFE10F07E
:10533000030018BF0120636AB5F808B09A445044CE
:10534000EB6860629889B4F828A0FCF7FBFD10F0C8
:10535000030018BF012058448245C0F0B780EB68B5
:10536000B5F808A09889FCF7EDFD10F0030018BF10
:105370000120238D50441B1A23852046FEF79CFAFA
:1053800069680B89002BB0D0D8F800000028A8D19C
:10539000C8F80010A7E7638BD80705D523F00103F1
:1053A00043F00203638307E543F00103638303E5EE
:1053B0005148FEF795FD00283FF4A6AC29466067EA
:1053C000FFF7B6FBA0E431681944616269E73B88E6
:1053D0003168228D194460E7B4F84820638E134485
:1053E0009BB29A4201D94FF6FF73A4F8483051E6B8
:1053F000ACEB0102002A22DB228DC4F874804CE75A
:105400003B8831681944F7E74046FCF79BFD00F004
:105410003E00FCF797FD28F47C58EA6840EA080350
:1054200093811FFA83F811E7521A91B2D8F8040059
:10543000A8F80810FDF760FDA3E5606775E6EB6866
:10544000ACEB0E0CA5F808C09889FCF77BFD810732
:1054500002D52B89013B2B8129896868FDF74CFD1A
:10546000EB68B5F808909889FCF76CFD10F0030321
:1054700018BF01234B44D8F80C209BB23B805168E5
:1054800032681A448A42B7D01C48FBF7CDF81C4852
:10549000FBF7CAF8CB1A99B2A8F80810D8F804009C
:1054A000FDF72AFD3168A3E5DB689D892846FCF7F6
:1054B00049FD00F03E00FCF745FDD8F8003025F42A
:1054C0007C55D96840EA05028A81A5E50D48FBF7BD
:1054D000ABF80D48FBF7A8F8074DEB682AE60B4838
:1054E000FBF7A2F80A48FBF79FF80A48FBF79CF87D
:1054F00000C400208AC40020441A0020182901108A
:10550000942801107429011054290110D028011089
:10551000C0280110B02801102DE9F04F8BB00028F1
:1055200000F05085704D4268B5F87A306F4E013307
:10553000A5F87A3043890446132B32600FD8B5F8AA
:1055400082300133A5F882302046B5F87E30013331
:10555000A5F87E300BB0BDE8F04FFDF787BD644F76
:105560003968786905F07AFEB0B97B6903F0F00319
:10557000E02B11D007F11403009306212046228965
:1055800007F11003FCF7A0FF804658B1B5F8803052
:105590000133A5F88030D7E7B5F888300133A5F896
:1055A0008830D1E733689889FCF7CCFC810A01F098
:1055B000FC011329C3D923898B42C0D36289DFF848
:1055C0004CA1DFF84C91A1F114039BB28A42C9F8B7
:1055D0000080AAF8003080F08F822368002B00F052
:1055E000D28514212046FDF7F1FCB4F80A80414B26
:1055F00041462046BAF800A0A3F80080FDF7E6FC7B
:105600002068AAEB080B43891FFA8BFB5B4596D3F6
:1056100043685946C9F80030FDF7D8FC23896289F0
:105620004344A3EB0A039BB22381002A40F0C085C8
:10563000226812899A4240F0B885D6F80080B8F8FE
:105640000000FCF77FFCA8F80000D6F80080B8F84E
:105650000200FCF777FCA8F80200D6F80080D8F822
:105660000400FCF773FC244BC8F80400D6F8008053
:105670001860D8F80800FCF769FC204BC8F808004F
:10568000D6F800801860B8F80E00FCF75BFC3368B1
:10569000A8F80E009889FCF755FC194B00F03F0B59
:1056A00083F800B0C3B205938307B4F808E000F0B4
:1056B00029820EF101039BB2124A9E45079208937C
:1056C00013803FF63CAF104A3368D2F80090B9F12E
:1056D000000F00F00C81D7E904CAC846002279689F
:1056E000CDF824B006941CE0741A00203CC40020BD
:1056F000541A00207CC400200CC400207C0A002026
:1057000086C4002080C4002024C400207EC4002061
:1057100040C40020D8F80C004246002800F0E68083
:10572000804698F81400002800F055840A2800F0FC
:105730004F84012800F0498498F808402CB191F872
:105740003C000130C0B28442E4D1B8F818B01888E7
:105750008345DFD1B8F816B058888345DAD1D8F838
:1057600004006045D6D1D8F800005045D2D1D8F811
:105770000C10DDF824B04145069C00F0F784002AA7
:1057800000F04C84D160844AC145C2F80080C8F85A
:105790000C9000F0EE840022DFF818927F4FC9F8D9
:1057A0000C307F4BDFF810A21A80059BA9F808E0A7
:1057B0001907C9F80440C9F800203A608AF80020A7
:1057C00003D5637B43F001036373D8F8783083B16A
:1057D0004046FEF705FF0D3000F0FD81D8F8783027
:1057E00023B1079B1B88002B40F0F5816D4B93F88C
:1057F00000B06D4C1BF00402C4F8008000F0B381CF
:1058000098F81430022B00F04083684A1168D8F8E9
:1058100024208A4200F0EB819AF80030881A002890
:1058200003F008030ADB521AB8F82810D14205D455
:10583000B8F81A2042F00202A8F81A20002B40F013
:10584000E581574B1A885AB1D8F880302BB14146C0
:10585000D8F8100098470D303BD00023504A1380F1
:105860009AF80030D80600F118833A68D2B1D8F817
:105870007830002B40F05A84B8F81A3013F0100337
:1058800040F0D383D8F88450002D00F0D8834146EF
:10589000D8F81000A84710F10D0F1AD010B13B68CE
:1058A000C8F878309AF80030990608D5D8F87830DA
:1058B000002B00F093835A7B42F020025A7300229F
:1058C0009AF800302260DA0600F1E782404601F0E3
:1058D00015FB0025D9F8040025603D6018B1FDF7DF
:1058E000C5FBC9F804500BB0BDE8F08F069C304AE8
:1058F0001068002841D0D7F80480D7F810A002E043
:10590000C068002839D0027D0A2A40F09583017AC8
:1059100029B198F83C200132D2B29142F0D11A88D4
:10592000B0F818E09645EBD15A88B0F8169091453A
:10593000E6D142685245E3D101687A699142DFD1EC
:10594000059B5F070FD49E0740F16083174B1A68D1
:10595000436AD11A002904DB018D9B1ACB4240F126
:105960001584089B0BB92046F4E5438B43F00203F2
:10597000438301F0C3FA2046ECE5DFF840A0DAF8F3
:105980000010002900F0C58088464FF0000CD7F8C1
:1059900004E0D7F814901AE024C4002000C40020CA
:1059A00078C4002086C400202CC400200CC4002031
:1059B00038C40020441A00208AC4002030C40020CB
:1059C000D8F80C20C446002A00F0A380904698F82E
:1059D000080028B19EF83C200132D2B29042EFD1AB
:1059E000B8F816005A889042EAD1D8F800204A4503
:1059F00001D0002AE4D1BCF1000F00F0AE80D8F84D
:105A00000C20CAF80080CCF80C20C8F80C10059ABD
:105A10005107A8D412F0100940F0D1809007A2D508
:105A200098F81500FEF7E6FB8246002800F0AA82EF
:105A3000D7E9043205460321376845F8042B436053
:105A4000B14B3A787F781B6842EA0722B8F81670A3
:105A50000133028301754362C362C782FEF708FF08
:105A6000A94B1B68013BCAF85430D8F81030CAF86B
:105A70005800CAF81030A54BCAF85000CAF84400C4
:105A8000CAF85C00CAF87C801968C3F800A098F8CE
:105A9000093003F00C038AF8093098F80830CAF886
:105AA0000C108AF8083001F0C1FD0122984B5046D5
:105AB0001A70FEF769FF33682846DA894B4662F3AD
:105AC0000F0362F31F43CAF86030BAF8326005F082
:105AD000FFF82A4601463046FEF7DCFE1221AAF8FE
